{
  "contractName": "DAO",
  "abi": [
    {
      "inputs": [
        {
          "internalType": "address",
          "name": "_token",
          "type": "address"
        }
      ],
      "stateMutability": "nonpayable",
      "type": "constructor"
    },
    {
      "inputs": [
        {
          "internalType": "bytes32",
          "name": "",
          "type": "bytes32"
        }
      ],
      "name": "proposals",
      "outputs": [
        {
          "internalType": "address",
          "name": "autho",
          "type": "address"
        },
        {
          "internalType": "bytes32",
          "name": "hash",
          "type": "bytes32"
        },
        {
          "internalType": "uint256",
          "name": "createdAt",
          "type": "uint256"
        },
        {
          "internalType": "uint256",
          "name": "votesYes",
          "type": "uint256"
        },
        {
          "internalType": "uint256",
          "name": "votesNo",
          "type": "uint256"
        },
        {
          "internalType": "enum DAO.Status",
          "name": "status",
          "type": "uint8"
        }
      ],
      "stateMutability": "view",
      "type": "function"
    },
    {
      "inputs": [],
      "name": "token",
      "outputs": [
        {
          "internalType": "contract IERC20",
          "name": "",
          "type": "address"
        }
      ],
      "stateMutability": "view",
      "type": "function"
    },
    {
      "inputs": [],
      "name": "totalShares",
      "outputs": [
        {
          "internalType": "uint256",
          "name": "",
          "type": "uint256"
        }
      ],
      "stateMutability": "view",
      "type": "function"
    },
    {
      "inputs": [
        {
          "internalType": "address",
          "name": "",
          "type": "address"
        },
        {
          "internalType": "bytes32",
          "name": "",
          "type": "bytes32"
        }
      ],
      "name": "votes",
      "outputs": [
        {
          "internalType": "bool",
          "name": "",
          "type": "bool"
        }
      ],
      "stateMutability": "view",
      "type": "function"
    },
    {
      "inputs": [
        {
          "internalType": "uint256",
          "name": "amount",
          "type": "uint256"
        }
      ],
      "name": "deposit",
      "outputs": [],
      "stateMutability": "nonpayable",
      "type": "function"
    },
    {
      "inputs": [
        {
          "internalType": "uint256",
          "name": "amount",
          "type": "uint256"
        }
      ],
      "name": "withdraw",
      "outputs": [],
      "stateMutability": "nonpayable",
      "type": "function"
    },
    {
      "inputs": [
        {
          "internalType": "bytes32",
          "name": "proposalHash",
          "type": "bytes32"
        }
      ],
      "name": "createProposal",
      "outputs": [],
      "stateMutability": "nonpayable",
      "type": "function"
    },
    {
      "inputs": [
        {
          "internalType": "bytes32",
          "name": "proposalHash",
          "type": "bytes32"
        },
        {
          "internalType": "enum DAO.Side",
          "name": "side",
          "type": "uint8"
        }
      ],
      "name": "vote",
      "outputs": [],
      "stateMutability": "nonpayable",
      "type": "function"
    }
  ],
  "bytecode": "0x60806040523480156200001157600080fd5b50604051620013fd380380620013fd8339818101604052810190620000379190620000e9565b80600460006101000a81548173ffffffffffffffffffffffffffffffffffffffff021916908373ffffffffffffffffffffffffffffffffffffffff160217905550506200011b565b600080fd5b600073ffffffffffffffffffffffffffffffffffffffff82169050919050565b6000620000b18262000084565b9050919050565b620000c381620000a4565b8114620000cf57600080fd5b50565b600081519050620000e381620000b8565b92915050565b6000602082840312156200010257620001016200007f565b5b60006200011284828501620000d2565b91505092915050565b6112d2806200012b6000396000f3fe608060405234801561001057600080fd5b50600436106100885760003560e01c80633a98ef391161005b5780633a98ef391461012a578063b6b55f2514610148578063c9a28cb914610164578063fc0c546a1461018057610088565b80631db5ade81461008d5780632542bf06146100bd5780632e1a7d4d146100d957806332ed5b12146100f5575b600080fd5b6100a760048036038101906100a29190610b18565b61019e565b6040516100b49190610b73565b60405180910390f35b6100d760048036038101906100d29190610b8e565b6101cd565b005b6100f360048036038101906100ee9190610bf1565b6103c1565b005b61010f600480360381019061010a9190610b8e565b610556565b60405161012196959493929190610cc2565b60405180910390f35b6101326105bf565b60405161013f9190610d23565b60405180910390f35b610162600480360381019061015d9190610bf1565b6105c5565b005b61017e60048036038101906101799190610d63565b6106da565b005b610188610a59565b6040516101959190610e02565b60405180910390f35b60016020528160005260406000206020528060005260406000206000915091509054906101000a900460ff1681565b683635c9adc5dea00000600260003373ffffffffffffffffffffffffffffffffffffffff1673ffffffffffffffffffffffffffffffffffffffff168152602001908152602001600020541015610258576040517f08c379a000000000000000000000000000000000000000000000000000000000815260040161024f90610ea0565b60405180910390fd5b6000801b60008083815260200190815260200160002060010154146102b2576040517f08c379a00000000000000000000000000000000000000000000000000000000081526004016102a990610f0c565b60405180910390fd5b6040518060c001604052803373ffffffffffffffffffffffffffffffffffffffff16815260200182815260200142815260200160008152602001600081526020016000600281111561030757610306610c4b565b5b81525060008083815260200190815260200160002060008201518160000160006101000a81548173ffffffffffffffffffffffffffffffffffffffff021916908373ffffffffffffffffffffffffffffffffffffffff1602179055506020820151816001015560408201518160020155606082015181600301556080820151816004015560a08201518160050160006101000a81548160ff021916908360028111156103b6576103b5610c4b565b5b021790555090505050565b80600260003373ffffffffffffffffffffffffffffffffffffffff1673ffffffffffffffffffffffffffffffffffffffff168152602001908152602001600020541015610443576040517f08c379a000000000000000000000000000000000000000000000000000000000815260040161043a90610f78565b60405180910390fd5b80600260003373ffffffffffffffffffffffffffffffffffffffff1673ffffffffffffffffffffffffffffffffffffffff16815260200190815260200160002060008282546104929190610fc7565b9250508190555080600360008282546104ab9190610fc7565b92505081905550600460009054906101000a900473ffffffffffffffffffffffffffffffffffffffff1673ffffffffffffffffffffffffffffffffffffffff1663a9059cbb33836040518363ffffffff1660e01b815260040161050f929190610ffb565b6020604051808303816000875af115801561052e573d6000803e3d6000fd5b505050506040513d601f19601f820116820180604052508101906105529190611050565b5050565b60006020528060005260406000206000915090508060000160009054906101000a900473ffffffffffffffffffffffffffffffffffffffff16908060010154908060020154908060030154908060040154908060050160009054906101000a900460ff16905086565b60035481565b80600260003373ffffffffffffffffffffffffffffffffffffffff1673ffffffffffffffffffffffffffffffffffffffff1681526020019081526020016000206000828254610614919061107d565b92505081905550806003600082825461062d919061107d565b92505081905550600460009054906101000a900473ffffffffffffffffffffffffffffffffffffffff1673ffffffffffffffffffffffffffffffffffffffff166323b872dd3330846040518463ffffffff1660e01b8152600401610693939291906110d3565b6020604051808303816000875af11580156106b2573d6000803e3d6000fd5b505050506040513d601f19601f820116820180604052508101906106d69190611050565b5050565b6000806000848152602001908152602001600020905060001515600160003373ffffffffffffffffffffffffffffffffffffffff1673ffffffffffffffffffffffffffffffffffffffff168152602001908152602001600020600085815260200190815260200160002060009054906101000a900460ff16151514610794576040517f08c379a000000000000000000000000000000000000000000000000000000000815260040161078b90611156565b60405180910390fd5b6000801b6000808581526020019081526020016000206001015414156107ef576040517f08c379a00000000000000000000000000000000000000000000000000000000081526004016107e690610f0c565b60405180910390fd5b62093a808160020154610802919061107d565b421115610844576040517f08c379a000000000000000000000000000000000000000000000000000000000815260040161083b906111c2565b60405180910390fd5b60018060003373ffffffffffffffffffffffffffffffffffffffff1673ffffffffffffffffffffffffffffffffffffffff168152602001908152602001600020600085815260200190815260200160002060006101000a81548160ff021916908315150217905550600060018111156108c0576108bf610c4b565b5b8260018111156108d3576108d2610c4b565b5b141561099957600260003373ffffffffffffffffffffffffffffffffffffffff1673ffffffffffffffffffffffffffffffffffffffff1681526020019081526020016000205481600301600082825461092c919061107d565b9250508190555060326003546064836003015461094991906111e2565b610953919061126b565b1115610994576001600281111561096d5761096c610c4b565b5b8160050160009054906101000a900460ff16600281111561099157610990610c4b565b5b50505b610a54565b600260003373ffffffffffffffffffffffffffffffffffffffff1673ffffffffffffffffffffffffffffffffffffffff168152602001908152602001600020548160040160008282546109ec919061107d565b92505081905550603260035460648360040154610a0991906111e2565b610a13919061126b565b1115610a5357600280811115610a2c57610a2b610c4b565b5b8160050160009054906101000a900460ff166002811115610a5057610a4f610c4b565b5b50505b5b505050565b600460009054906101000a900473ffffffffffffffffffffffffffffffffffffffff1681565b600080fd5b600073ffffffffffffffffffffffffffffffffffffffff82169050919050565b6000610aaf82610a84565b9050919050565b610abf81610aa4565b8114610aca57600080fd5b50565b600081359050610adc81610ab6565b92915050565b6000819050919050565b610af581610ae2565b8114610b0057600080fd5b50565b600081359050610b1281610aec565b92915050565b60008060408385031215610b2f57610b2e610a7f565b5b6000610b3d85828601610acd565b9250506020610b4e85828601610b03565b9150509250929050565b60008115159050919050565b610b6d81610b58565b82525050565b6000602082019050610b886000830184610b64565b92915050565b600060208284031215610ba457610ba3610a7f565b5b6000610bb284828501610b03565b91505092915050565b6000819050919050565b610bce81610bbb565b8114610bd957600080fd5b50565b600081359050610beb81610bc5565b92915050565b600060208284031215610c0757610c06610a7f565b5b6000610c1584828501610bdc565b91505092915050565b610c2781610aa4565b82525050565b610c3681610ae2565b82525050565b610c4581610bbb565b82525050565b7f4e487b7100000000000000000000000000000000000000000000000000000000600052602160045260246000fd5b60038110610c8b57610c8a610c4b565b5b50565b6000819050610c9c82610c7a565b919050565b6000610cac82610c8e565b9050919050565b610cbc81610ca1565b82525050565b600060c082019050610cd76000830189610c1e565b610ce46020830188610c2d565b610cf16040830187610c3c565b610cfe6060830186610c3c565b610d0b6080830185610c3c565b610d1860a0830184610cb3565b979650505050505050565b6000602082019050610d386000830184610c3c565b92915050565b60028110610d4b57600080fd5b50565b600081359050610d5d81610d3e565b92915050565b60008060408385031215610d7a57610d79610a7f565b5b6000610d8885828601610b03565b9250506020610d9985828601610d4e565b9150509250929050565b6000819050919050565b6000610dc8610dc3610dbe84610a84565b610da3565b610a84565b9050919050565b6000610dda82610dad565b9050919050565b6000610dec82610dcf565b9050919050565b610dfc81610de1565b82525050565b6000602082019050610e176000830184610df3565b92915050565b600082825260208201905092915050565b7f6e6f7420656e6f7567682073686172657320746f206372656174652070726f7060008201527f6f73616c00000000000000000000000000000000000000000000000000000000602082015250565b6000610e8a602483610e1d565b9150610e9582610e2e565b604082019050919050565b60006020820190508181036000830152610eb981610e7d565b9050919050565b7f50726f706f73616c20616c726561647920657869737400000000000000000000600082015250565b6000610ef6601683610e1d565b9150610f0182610ec0565b602082019050919050565b60006020820190508181036000830152610f2581610ee9565b9050919050565b7f4e6f7420656e6f75676820736861726573000000000000000000000000000000600082015250565b6000610f62601183610e1d565b9150610f6d82610f2c565b602082019050919050565b60006020820190508181036000830152610f9181610f55565b9050919050565b7f4e487b7100000000000000000000000000000000000000000000000000000000600052601160045260246000fd5b6000610fd282610bbb565b9150610fdd83610bbb565b925082821015610ff057610fef610f98565b5b828203905092915050565b60006040820190506110106000830185610c1e565b61101d6020830184610c3c565b9392505050565b61102d81610b58565b811461103857600080fd5b50565b60008151905061104a81611024565b92915050565b60006020828403121561106657611065610a7f565b5b60006110748482850161103b565b91505092915050565b600061108882610bbb565b915061109383610bbb565b9250827fffffffffffffffffffffffffffffffffffffffffffffffffffffffffffffffff038211156110c8576110c7610f98565b5b828201905092915050565b60006060820190506110e86000830186610c1e565b6110f56020830185610c1e565b6111026040830184610c3c565b949350505050565b7f416c726561647920766f74656400000000000000000000000000000000000000600082015250565b6000611140600d83610e1d565b915061114b8261110a565b602082019050919050565b6000602082019050818103600083015261116f81611133565b9050919050565b7f766f74696e6720706572696f64206973206f7665720000000000000000000000600082015250565b60006111ac601583610e1d565b91506111b782611176565b602082019050919050565b600060208201905081810360008301526111db8161119f565b9050919050565b60006111ed82610bbb565b91506111f883610bbb565b9250817fffffffffffffffffffffffffffffffffffffffffffffffffffffffffffffffff048311821515161561123157611230610f98565b5b828202905092915050565b7f4e487b7100000000000000000000000000000000000000000000000000000000600052601260045260246000fd5b600061127682610bbb565b915061128183610bbb565b9250826112915761129061123c565b5b82820490509291505056fea264697066735822122050151469cee5be552c8f5030625d9e8c3812722a7db413fc3a7a3c6f447c009764736f6c634300080b0033",
  "immutableReferences": {},
  "source": "//SPDX-License-Identifier: UNLICENSED\npragma solidity ^0.8.0;\n\nimport \"../node_modules/@openzeppelin/contracts/token/ERC20/IERC20.sol\";\n\ncontract DAO {\n    enum Side {\n        Yes,\n        No\n    }\n    enum Status {\n        Undecided,\n        Approved,\n        Rejected\n    }\n\n    struct Proposal {\n        address autho;\n        bytes32 hash;\n        uint256 createdAt;\n        uint256 votesYes;\n        uint256 votesNo;\n        Status status;\n    }\n    mapping(bytes32 => Proposal) public proposals;\n    mapping(address => mapping(bytes32 => bool)) public votes;\n    mapping(address => uint256) shares;\n    uint256 public totalShares;\n    IERC20 public token;\n    uint256 constant CREATE_PROPOSAL_MIN_SHARE = 1000 * 10**18;\n\n    uint256 constant VOTING_PERIOD = 7 days;\n\n    constructor(address _token) {\n        token = IERC20(_token);\n    }\n\n    function deposit(uint256 amount) external {\n        shares[msg.sender] += amount;\n        totalShares += amount;\n        token.transferFrom(msg.sender, address(this), amount);\n    }\n\n    function withdraw(uint256 amount) external {\n        require(shares[msg.sender] >= amount, \"Not enough shares\");\n        shares[msg.sender] -= amount;\n        totalShares -= amount;\n        token.transfer(msg.sender, amount);\n    }\n\n    function createProposal(bytes32 proposalHash) external {\n        require(\n            shares[msg.sender] >= CREATE_PROPOSAL_MIN_SHARE,\n            \"not enough shares to create proposal\"\n        );\n        require(\n            proposals[proposalHash].hash == bytes32(0),\n            \"Proposal already exist\"\n        );\n        proposals[proposalHash] = Proposal(\n            msg.sender,\n            proposalHash,\n            block.timestamp,\n            0,\n            0,\n            Status.Undecided\n        );\n    }\n    function vote( bytes32  proposalHash , Side side) external{\n        Proposal storage proposal = proposals[proposalHash];\n        require( votes[msg.sender][proposalHash] == false,\"Already voted\");\n        require(\n            proposals[proposalHash].hash != bytes32(0),\n            \"Proposal already exist\"\n        );\n        require( block.timestamp <= proposal.createdAt + VOTING_PERIOD,\"voting period is over\");\n        votes[msg.sender][proposalHash] = true;\n        if(side == Side.Yes){\n            proposal.votesYes += shares[msg.sender];\n            if(proposal.votesYes * 100 / totalShares > 50){\n                proposal.status == Status.Approved;\n            }\n        }else{\n            proposal.votesNo += shares[msg.sender];\n            if(proposal.votesNo * 100 / totalShares > 50){\n                proposal.status == Status.Rejected;\n            }\n        }\n    }\n}\n",
  "sourcePath": "/home/codecrunch/Music/eatTheBlocks-Solidity/DeFi-projects/DAO/contracts/DAO.sol",
  "compiler": {
    "name": "solc",
    "version": "0.8.11+commit.d7f03943.Emscripten.clang"
  },
  "schemaVersion": "3.4.4",
  "updatedAt": "2022-02-14T11:42:07.521Z",
  "devdoc": {
    "kind": "dev",
    "methods": {},
    "version": 1
  },
  "userdoc": {
    "kind": "user",
    "methods": {},
    "version": 1
  }
}