{
  "contractName": "Wallet",
  "abi": [
    {
      "inputs": [
        {
          "internalType": "address",
          "name": "_comptroller",
          "type": "address"
        },
        {
          "internalType": "address",
          "name": "_cEthAddress",
          "type": "address"
        }
      ],
      "stateMutability": "nonpayable",
      "type": "constructor"
    },
    {
      "inputs": [],
      "name": "admin",
      "outputs": [
        {
          "internalType": "address",
          "name": "",
          "type": "address"
        }
      ],
      "stateMutability": "view",
      "type": "function"
    },
    {
      "inputs": [],
      "name": "cEth",
      "outputs": [
        {
          "internalType": "contract CEthInterface",
          "name": "",
          "type": "address"
        }
      ],
      "stateMutability": "view",
      "type": "function"
    },
    {
      "inputs": [],
      "name": "comptroller",
      "outputs": [
        {
          "internalType": "contract ComptrollerInterface",
          "name": "",
          "type": "address"
        }
      ],
      "stateMutability": "view",
      "type": "function"
    },
    {
      "inputs": [
        {
          "internalType": "address",
          "name": "cTokenAddress",
          "type": "address"
        }
      ],
      "name": "getUnderlyingBalance",
      "outputs": [
        {
          "internalType": "uint256",
          "name": "",
          "type": "uint256"
        }
      ],
      "stateMutability": "nonpayable",
      "type": "function"
    },
    {
      "inputs": [],
      "name": "getUnderlyingEthBalance",
      "outputs": [
        {
          "internalType": "uint256",
          "name": "",
          "type": "uint256"
        }
      ],
      "stateMutability": "nonpayable",
      "type": "function"
    },
    {
      "inputs": [
        {
          "internalType": "address",
          "name": "cTokenAddress",
          "type": "address"
        }
      ],
      "name": "getcTokenBalance",
      "outputs": [
        {
          "internalType": "uint256",
          "name": "",
          "type": "uint256"
        }
      ],
      "stateMutability": "view",
      "type": "function"
    },
    {
      "inputs": [
        {
          "internalType": "address",
          "name": "cTokenAddress",
          "type": "address"
        },
        {
          "internalType": "uint256",
          "name": "underlyingAmount",
          "type": "uint256"
        }
      ],
      "name": "depost",
      "outputs": [],
      "stateMutability": "nonpayable",
      "type": "function"
    }
  ],
  "bytecode": "0x608060405234801561001057600080fd5b50604051610c4c380380610c4c83398181016040528101906100329190610162565b8181816000806101000a81548173ffffffffffffffffffffffffffffffffffffffff021916908373ffffffffffffffffffffffffffffffffffffffff16021790555080600160006101000a81548173ffffffffffffffffffffffffffffffffffffffff021916908373ffffffffffffffffffffffffffffffffffffffff160217905550505033600260006101000a81548173ffffffffffffffffffffffffffffffffffffffff021916908373ffffffffffffffffffffffffffffffffffffffff16021790555050506101a2565b600080fd5b600073ffffffffffffffffffffffffffffffffffffffff82169050919050565b600061012f82610104565b9050919050565b61013f81610124565b811461014a57600080fd5b50565b60008151905061015c81610136565b92915050565b60008060408385031215610179576101786100ff565b5b60006101878582860161014d565b92505060206101988582860161014d565b9150509250929050565b610a9b806101b16000396000f3fe608060405234801561001057600080fd5b506004361061007d5760003560e01c8063703d795c1161005b578063703d795c146100ec578063a44026a31461010a578063f0d23e8f14610128578063f851a440146101585761007d565b80631031cb5f146100825780631a60801a146100b25780635fe3b567146100ce575b600080fd5b61009c600480360381019061009791906106cc565b610176565b6040516100a99190610712565b60405180910390f35b6100cc60048036038101906100c79190610759565b6101f9565b005b6100d6610296565b6040516100e391906107f8565b60405180910390f35b6100f46102ba565b6040516101019190610712565b60405180910390f35b61011261035f565b60405161011f9190610834565b60405180910390f35b610142600480360381019061013d91906106cc565b610385565b60405161014f9190610712565b60405180910390f35b61016061040a565b60405161016d919061085e565b60405180910390f35b60008173ffffffffffffffffffffffffffffffffffffffff166370a08231306040518263ffffffff1660e01b81526004016101b1919061085e565b602060405180830381865afa1580156101ce573d6000803e3d6000fd5b505050506040513d601f19601f820116820180604052508101906101f2919061088e565b9050919050565b600061020483610430565b90508073ffffffffffffffffffffffffffffffffffffffff166323b872dd3330856040518463ffffffff1660e01b8152600401610243939291906108bb565b6020604051808303816000875af1158015610262573d6000803e3d6000fd5b505050506040513d601f19601f82011682018060405250810190610286919061092a565b5061029183836104a8565b505050565b60008054906101000a900473ffffffffffffffffffffffffffffffffffffffff1681565b6000600160009054906101000a900473ffffffffffffffffffffffffffffffffffffffff1673ffffffffffffffffffffffffffffffffffffffff16633af9e669306040518263ffffffff1660e01b8152600401610317919061085e565b6020604051808303816000875af1158015610336573d6000803e3d6000fd5b505050506040513d601f19601f8201168201806040525081019061035a919061088e565b905090565b600160009054906101000a900473ffffffffffffffffffffffffffffffffffffffff1681565b60008173ffffffffffffffffffffffffffffffffffffffff16633af9e669306040518263ffffffff1660e01b81526004016103c0919061085e565b6020604051808303816000875af11580156103df573d6000803e3d6000fd5b505050506040513d601f19601f82011682018060405250810190610403919061088e565b9050919050565b600260009054906101000a900473ffffffffffffffffffffffffffffffffffffffff1681565b60008173ffffffffffffffffffffffffffffffffffffffff16636f307dc36040518163ffffffff1660e01b8152600401602060405180830381865afa15801561047d573d6000803e3d6000fd5b505050506040513d601f19601f820116820180604052508101906104a1919061096c565b9050919050565b600082905060008173ffffffffffffffffffffffffffffffffffffffff16636f307dc36040518163ffffffff1660e01b8152600401602060405180830381865afa1580156104fa573d6000803e3d6000fd5b505050506040513d601f19601f8201168201806040525081019061051e919061096c565b90508073ffffffffffffffffffffffffffffffffffffffff1663095ea7b385856040518363ffffffff1660e01b815260040161055b929190610999565b6020604051808303816000875af115801561057a573d6000803e3d6000fd5b505050506040513d601f19601f8201168201806040525081019061059e919061092a565b5060008273ffffffffffffffffffffffffffffffffffffffff1663a0712d68856040518263ffffffff1660e01b81526004016105da9190610712565b6020604051808303816000875af11580156105f9573d6000803e3d6000fd5b505050506040513d601f19601f8201168201806040525081019061061d919061088e565b905060008114610662576040517f08c379a000000000000000000000000000000000000000000000000000000000815260040161065990610a45565b60405180910390fd5b5050505050565b600080fd5b600073ffffffffffffffffffffffffffffffffffffffff82169050919050565b60006106998261066e565b9050919050565b6106a98161068e565b81146106b457600080fd5b50565b6000813590506106c6816106a0565b92915050565b6000602082840312156106e2576106e1610669565b5b60006106f0848285016106b7565b91505092915050565b6000819050919050565b61070c816106f9565b82525050565b60006020820190506107276000830184610703565b92915050565b610736816106f9565b811461074157600080fd5b50565b6000813590506107538161072d565b92915050565b600080604083850312156107705761076f610669565b5b600061077e858286016106b7565b925050602061078f85828601610744565b9150509250929050565b6000819050919050565b60006107be6107b96107b48461066e565b610799565b61066e565b9050919050565b60006107d0826107a3565b9050919050565b60006107e2826107c5565b9050919050565b6107f2816107d7565b82525050565b600060208201905061080d60008301846107e9565b92915050565b600061081e826107c5565b9050919050565b61082e81610813565b82525050565b60006020820190506108496000830184610825565b92915050565b6108588161068e565b82525050565b6000602082019050610873600083018461084f565b92915050565b6000815190506108888161072d565b92915050565b6000602082840312156108a4576108a3610669565b5b60006108b284828501610879565b91505092915050565b60006060820190506108d0600083018661084f565b6108dd602083018561084f565b6108ea6040830184610703565b949350505050565b60008115159050919050565b610907816108f2565b811461091257600080fd5b50565b600081519050610924816108fe565b92915050565b6000602082840312156109405761093f610669565b5b600061094e84828501610915565b91505092915050565b600081519050610966816106a0565b92915050565b60006020828403121561098257610981610669565b5b600061099084828501610957565b91505092915050565b60006040820190506109ae600083018561084f565b6109bb6020830184610703565b9392505050565b600082825260208201905092915050565b7f63546f6b656e236d696e742829206661696c65642e2073656520436f6d706f7560008201527f6e64204572726f725265706f727465722e736f6c20666f722064657461696c73602082015250565b6000610a2f6040836109c2565b9150610a3a826109d3565b604082019050919050565b60006020820190508181036000830152610a5e81610a22565b905091905056fea26469706673582212205b09cb0da45c4a0e78e89979dcf9b066059d7e461916463c921c03848a7eb8e264736f6c634300080b0033",
  "immutableReferences": {},
  "source": "//SPDX-License-Identifier: UNLICENSED\npragma solidity ^0.8.0;\n\nimport \"../node_modules/@openzeppelin/contracts/token/ERC20/IERC20.sol\";\nimport \"./Compound.sol\";\n\ncontract Wallet is Compound {\n    address public admin;\n\n    constructor(address _comptroller, address _cEthAddress)\n        Compound(_comptroller, _cEthAddress)\n    {\n        admin = msg.sender;\n    }\n\n    function depost(address cTokenAddress, uint256 underlyingAmount) external {\n        address undelyingAddress = getUnderlyingAddress(cTokenAddress);\n        IERC20(undelyingAddress).transferFrom(\n            msg.sender,\n            address(this),\n            underlyingAmount\n        );\n        supply(cTokenAddress, underlyingAmount);\n    }\n}\n",
  "sourcePath": "/home/codecrunch/Music/eatTheBlocks-Solidity/DeFi-projects/DeFiWallet/contracts/Wallet.sol",
  "compiler": {
    "name": "solc",
    "version": "0.8.11+commit.d7f03943.Emscripten.clang"
  },
  "schemaVersion": "3.4.4",
  "updatedAt": "2022-02-16T13:31:20.617Z",
  "devdoc": {
    "kind": "dev",
    "methods": {},
    "version": 1
  },
  "userdoc": {
    "kind": "user",
    "methods": {},
    "version": 1
  }
}