{
  "contractName": "MyDeFiProject",
  "abi": [
    {
      "inputs": [
        {
          "internalType": "address",
          "name": "_comptroller",
          "type": "address"
        },
        {
          "internalType": "address",
          "name": "_priceOracle",
          "type": "address"
        }
      ],
      "stateMutability": "nonpayable",
      "type": "constructor"
    },
    {
      "inputs": [],
      "name": "comptroller",
      "outputs": [
        {
          "internalType": "contract ComptrollerInterface",
          "name": "",
          "type": "address"
        }
      ],
      "stateMutability": "view",
      "type": "function"
    },
    {
      "inputs": [],
      "name": "priceOracle",
      "outputs": [
        {
          "internalType": "contract PriceOracleInterface",
          "name": "",
          "type": "address"
        }
      ],
      "stateMutability": "view",
      "type": "function"
    },
    {
      "inputs": [
        {
          "internalType": "address",
          "name": "cTokenAddress",
          "type": "address"
        },
        {
          "internalType": "uint256",
          "name": "underlyingAmount",
          "type": "uint256"
        }
      ],
      "name": "supply",
      "outputs": [],
      "stateMutability": "nonpayable",
      "type": "function"
    },
    {
      "inputs": [
        {
          "internalType": "address",
          "name": "cTokenAddress",
          "type": "address"
        },
        {
          "internalType": "uint256",
          "name": "cTokenAmount",
          "type": "uint256"
        }
      ],
      "name": "redeem",
      "outputs": [],
      "stateMutability": "nonpayable",
      "type": "function"
    },
    {
      "inputs": [
        {
          "internalType": "address",
          "name": "cTokenAddress",
          "type": "address"
        }
      ],
      "name": "enterMarket",
      "outputs": [],
      "stateMutability": "nonpayable",
      "type": "function"
    },
    {
      "inputs": [
        {
          "internalType": "address",
          "name": "cTokenAddress",
          "type": "address"
        },
        {
          "internalType": "uint256",
          "name": "borrowAmount",
          "type": "uint256"
        }
      ],
      "name": "borrow",
      "outputs": [],
      "stateMutability": "nonpayable",
      "type": "function"
    },
    {
      "inputs": [
        {
          "internalType": "address",
          "name": "cTokenAddress",
          "type": "address"
        },
        {
          "internalType": "uint256",
          "name": "underlyingAmount",
          "type": "uint256"
        }
      ],
      "name": "repayBorrow",
      "outputs": [],
      "stateMutability": "nonpayable",
      "type": "function"
    },
    {
      "inputs": [
        {
          "internalType": "address",
          "name": "cTokenAddress",
          "type": "address"
        }
      ],
      "name": "getMaxBorrow",
      "outputs": [
        {
          "internalType": "uint256",
          "name": "",
          "type": "uint256"
        }
      ],
      "stateMutability": "view",
      "type": "function"
    }
  ],
  "bytecode": "0x60806040523480156200001157600080fd5b50604051620017f4380380620017f483398181016040528101906200003791906200012a565b816000806101000a81548173ffffffffffffffffffffffffffffffffffffffff021916908373ffffffffffffffffffffffffffffffffffffffff16021790555080600160006101000a81548173ffffffffffffffffffffffffffffffffffffffff021916908373ffffffffffffffffffffffffffffffffffffffff160217905550505062000171565b600080fd5b600073ffffffffffffffffffffffffffffffffffffffff82169050919050565b6000620000f282620000c5565b9050919050565b6200010481620000e5565b81146200011057600080fd5b50565b6000815190506200012481620000f9565b92915050565b60008060408385031215620001445762000143620000c0565b5b6000620001548582860162000113565b9250506020620001678582860162000113565b9150509250929050565b61167380620001816000396000f3fe608060405234801561001057600080fd5b50600436106100885760003560e01c80635fe3b5671161005b5780635fe3b567146100ff578063abdb5ea81461011d578063f2b9fdb814610139578063fd1c317a1461015557610088565b80631e9a69501461008d5780632630c12f146100a95780633fe5d425146100c75780634b8a3529146100e3575b600080fd5b6100a760048036038101906100a29190610bd5565b610185565b005b6100b1610253565b6040516100be9190610c74565b60405180910390f35b6100e160048036038101906100dc9190610c8f565b610279565b005b6100fd60048036038101906100f89190610bd5565b61041f565b005b610107610561565b6040516101149190610cdd565b60405180910390f35b61013760048036038101906101329190610bd5565b610585565b005b610153600480360381019061014e9190610bd5565b610746565b005b61016f600480360381019061016a9190610c8f565b610907565b60405161017c9190610d07565b60405180910390f35b600082905060008173ffffffffffffffffffffffffffffffffffffffff1663db006a75846040518263ffffffff1660e01b81526004016101c59190610d07565b6020604051808303816000875af11580156101e4573d6000803e3d6000fd5b505050506040513d601f19601f820116820180604052508101906102089190610d37565b90506000811461024d576040517f08c379a000000000000000000000000000000000000000000000000000000000815260040161024490610de7565b60405180910390fd5b50505050565b600160009054906101000a900473ffffffffffffffffffffffffffffffffffffffff1681565b6000600167ffffffffffffffff81111561029657610295610e07565b5b6040519080825280602002602001820160405280156102c45781602001602082028036833780820191505090505b50905081816000815181106102dc576102db610e36565b5b602002602001019073ffffffffffffffffffffffffffffffffffffffff16908173ffffffffffffffffffffffffffffffffffffffff168152505060008060009054906101000a900473ffffffffffffffffffffffffffffffffffffffff1673ffffffffffffffffffffffffffffffffffffffff1663aa820075836040518263ffffffff1660e01b81526004016103729190610f23565b6000604051808303816000875af1158015610391573d6000803e3d6000fd5b505050506040513d6000823e3d601f19601f820116820180604052508101906103ba919061106f565b90506000816000815181106103d2576103d1610e36565b5b60200260200101511461041a576040517f08c379a00000000000000000000000000000000000000000000000000000000081526004016104119061112a565b60405180910390fd5b505050565b600082905060008173ffffffffffffffffffffffffffffffffffffffff16636f307dc36040518163ffffffff1660e01b8152600401602060405180830381865afa158015610471573d6000803e3d6000fd5b505050506040513d601f19601f82011682018060405250810190610495919061115f565b905060008273ffffffffffffffffffffffffffffffffffffffff1663c5ebeaec856040518263ffffffff1660e01b81526004016104d29190610d07565b6020604051808303816000875af11580156104f1573d6000803e3d6000fd5b505050506040513d601f19601f820116820180604052508101906105159190610d37565b90506000811461055a576040517f08c379a0000000000000000000000000000000000000000000000000000000008152600401610551906111fe565b60405180910390fd5b5050505050565b60008054906101000a900473ffffffffffffffffffffffffffffffffffffffff1681565b600082905060008173ffffffffffffffffffffffffffffffffffffffff16636f307dc36040518163ffffffff1660e01b8152600401602060405180830381865afa1580156105d7573d6000803e3d6000fd5b505050506040513d601f19601f820116820180604052508101906105fb919061115f565b90508073ffffffffffffffffffffffffffffffffffffffff1663095ea7b385856040518363ffffffff1660e01b815260040161063892919061122d565b6020604051808303816000875af1158015610657573d6000803e3d6000fd5b505050506040513d601f19601f8201168201806040525081019061067b919061128e565b5060008273ffffffffffffffffffffffffffffffffffffffff16630e752702856040518263ffffffff1660e01b81526004016106b79190610d07565b6020604051808303816000875af11580156106d6573d6000803e3d6000fd5b505050506040513d601f19601f820116820180604052508101906106fa9190610d37565b90506000811461073f576040517f08c379a00000000000000000000000000000000000000000000000000000000081526004016107369061132d565b60405180910390fd5b5050505050565b600082905060008173ffffffffffffffffffffffffffffffffffffffff16636f307dc36040518163ffffffff1660e01b8152600401602060405180830381865afa158015610798573d6000803e3d6000fd5b505050506040513d601f19601f820116820180604052508101906107bc919061115f565b90508073ffffffffffffffffffffffffffffffffffffffff1663095ea7b385856040518363ffffffff1660e01b81526004016107f992919061122d565b6020604051808303816000875af1158015610818573d6000803e3d6000fd5b505050506040513d601f19601f8201168201806040525081019061083c919061128e565b5060008273ffffffffffffffffffffffffffffffffffffffff1663a0712d68856040518263ffffffff1660e01b81526004016108789190610d07565b6020604051808303816000875af1158015610897573d6000803e3d6000fd5b505050506040513d601f19601f820116820180604052508101906108bb9190610d37565b905060008114610900576040517f08c379a00000000000000000000000000000000000000000000000000000000081526004016108f7906113bf565b60405180910390fd5b5050505050565b60008060008060008054906101000a900473ffffffffffffffffffffffffffffffffffffffff1673ffffffffffffffffffffffffffffffffffffffff16635ec88c79306040518263ffffffff1660e01b815260040161096691906113df565b606060405180830381865afa158015610983573d6000803e3d6000fd5b505050506040513d601f19601f820116820180604052508101906109a791906113fa565b925092509250600083146109f0576040517f08c379a00000000000000000000000000000000000000000000000000000000081526004016109e7906114e5565b60405180910390fd5b60008114610a33576040517f08c379a0000000000000000000000000000000000000000000000000000000008152600401610a2a90611551565b60405180910390fd5b60008211610a76576040517f08c379a0000000000000000000000000000000000000000000000000000000008152600401610a6d906115bd565b60405180910390fd5b6000600160009054906101000a900473ffffffffffffffffffffffffffffffffffffffff1673ffffffffffffffffffffffffffffffffffffffff1663fb11d1f7876040518263ffffffff1660e01b8152600401610ad391906113df565b602060405180830381865afa158015610af0573d6000803e3d6000fd5b505050506040513d601f19601f82011682018060405250810190610b149190610d37565b90508083610b22919061160c565b945050505050919050565b6000604051905090565b600080fd5b600080fd5b600073ffffffffffffffffffffffffffffffffffffffff82169050919050565b6000610b6c82610b41565b9050919050565b610b7c81610b61565b8114610b8757600080fd5b50565b600081359050610b9981610b73565b92915050565b6000819050919050565b610bb281610b9f565b8114610bbd57600080fd5b50565b600081359050610bcf81610ba9565b92915050565b60008060408385031215610bec57610beb610b37565b5b6000610bfa85828601610b8a565b9250506020610c0b85828601610bc0565b9150509250929050565b6000819050919050565b6000610c3a610c35610c3084610b41565b610c15565b610b41565b9050919050565b6000610c4c82610c1f565b9050919050565b6000610c5e82610c41565b9050919050565b610c6e81610c53565b82525050565b6000602082019050610c896000830184610c65565b92915050565b600060208284031215610ca557610ca4610b37565b5b6000610cb384828501610b8a565b91505092915050565b6000610cc782610c41565b9050919050565b610cd781610cbc565b82525050565b6000602082019050610cf26000830184610cce565b92915050565b610d0181610b9f565b82525050565b6000602082019050610d1c6000830184610cf8565b92915050565b600081519050610d3181610ba9565b92915050565b600060208284031215610d4d57610d4c610b37565b5b6000610d5b84828501610d22565b91505092915050565b600082825260208201905092915050565b7f63546f6b726e2372656465656d2829204661696c65642e2073656520636f6d7060008201527f6f756e64206572726f725265706f727465640000000000000000000000000000602082015250565b6000610dd1603283610d64565b9150610ddc82610d75565b604082019050919050565b60006020820190508181036000830152610e0081610dc4565b9050919050565b7f4e487b7100000000000000000000000000000000000000000000000000000000600052604160045260246000fd5b7f4e487b7100000000000000000000000000000000000000000000000000000000600052603260045260246000fd5b600081519050919050565b600082825260208201905092915050565b6000819050602082019050919050565b610e9a81610b61565b82525050565b6000610eac8383610e91565b60208301905092915050565b6000602082019050919050565b6000610ed082610e65565b610eda8185610e70565b9350610ee583610e81565b8060005b83811015610f16578151610efd8882610ea0565b9750610f0883610eb8565b925050600181019050610ee9565b5085935050505092915050565b60006020820190508181036000830152610f3d8184610ec5565b905092915050565b600080fd5b6000601f19601f8301169050919050565b610f6482610f4a565b810181811067ffffffffffffffff82111715610f8357610f82610e07565b5b80604052505050565b6000610f96610b2d565b9050610fa28282610f5b565b919050565b600067ffffffffffffffff821115610fc257610fc1610e07565b5b602082029050602081019050919050565b600080fd5b6000610feb610fe684610fa7565b610f8c565b9050808382526020820190506020840283018581111561100e5761100d610fd3565b5b835b8181101561103757806110238882610d22565b845260208401935050602081019050611010565b5050509392505050565b600082601f83011261105657611055610f45565b5b8151611066848260208601610fd8565b91505092915050565b60006020828403121561108557611084610b37565b5b600082015167ffffffffffffffff8111156110a3576110a2610b3c565b5b6110af84828501611041565b91505092915050565b7f636f6d7074726f6c6c65722365746865724d61726b6574732829204661696c6560008201527f642e2073656520636f6d706f756e64206572726f725265706f72746564000000602082015250565b6000611114603d83610d64565b915061111f826110b8565b604082019050919050565b6000602082019050818103600083015261114381611107565b9050919050565b60008151905061115981610b73565b92915050565b60006020828403121561117557611174610b37565b5b60006111838482850161114a565b91505092915050565b7f63546f6b656e23626f72726f772829204661696c65642e2073656520636f6d7060008201527f6f756e64206572726f725265706f727465640000000000000000000000000000602082015250565b60006111e8603283610d64565b91506111f38261118c565b604082019050919050565b60006020820190508181036000830152611217816111db565b9050919050565b61122781610b61565b82525050565b6000604082019050611242600083018561121e565b61124f6020830184610cf8565b9392505050565b60008115159050919050565b61126b81611256565b811461127657600080fd5b50565b60008151905061128881611262565b92915050565b6000602082840312156112a4576112a3610b37565b5b60006112b284828501611279565b91505092915050565b7f63546f6b726e237265706179426f72726f772829204661696c65642e2073656560008201527f20636f6d706f756e64206572726f725265706f72746564000000000000000000602082015250565b6000611317603783610d64565b9150611322826112bb565b604082019050919050565b600060208201905081810360008301526113468161130a565b9050919050565b7f63546f6b726e236d696e74204661696c65642e2073656520636f6d706f756e6460008201527f206572726f725265706f72746564000000000000000000000000000000000000602082015250565b60006113a9602e83610d64565b91506113b48261134d565b604082019050919050565b600060208201905081810360008301526113d88161139c565b9050919050565b60006020820190506113f4600083018461121e565b92915050565b60008060006060848603121561141357611412610b37565b5b600061142186828701610d22565b935050602061143286828701610d22565b925050604061144386828701610d22565b9150509250925092565b7f636f6d7074726f6c6c6572236765744163636f756e744c69717569646974792860008201527f29204661696c65642e2073656520636f6d706f756e64206572726f725265706f60208201527f7274656400000000000000000000000000000000000000000000000000000000604082015250565b60006114cf604483610d64565b91506114da8261144d565b606082019050919050565b600060208201905081810360008301526114fe816114c2565b9050919050565b7f4163636f756e7420756e64657277617465720000000000000000000000000000600082015250565b600061153b601283610d64565b915061154682611505565b602082019050919050565b6000602082019050818103600083015261156a8161152e565b9050919050565b7f4163636f756e7420646f6573206e6f74206861766520636f6c6c61746572616c600082015250565b60006115a7602083610d64565b91506115b282611571565b602082019050919050565b600060208201905081810360008301526115d68161159a565b9050919050565b7f4e487b7100000000000000000000000000000000000000000000000000000000600052601260045260246000fd5b600061161782610b9f565b915061162283610b9f565b925082611632576116316115dd565b5b82820490509291505056fea26469706673582212207ec655785d94a785db0b361fceb71fe060ff25567b4787fd497bddae1081d3c164736f6c634300080b0033",
  "immutableReferences": {},
  "source": "//SPDX-License-Identifier: UNLICENSED\npragma solidity ^0.8.0;\n\nimport \"../node_modules/@openzeppelin/contracts/token/ERC20/IERC20.sol\";\nimport \"./CTokenInterface.sol\";\nimport \"./ComptrollerInterface.sol\";\nimport \"./PriceOracleInterface.sol\";\n\ncontract MyDeFiProject {\n    ComptrollerInterface public comptroller;\n    PriceOracleInterface public priceOracle;\n\n    constructor(address _comptroller, address _priceOracle) {\n        comptroller = ComptrollerInterface(_comptroller);\n        priceOracle = PriceOracleInterface(_priceOracle);\n    }\n\n    function supply(address cTokenAddress, uint256 underlyingAmount) external {\n        CTokenInterface cToken = CTokenInterface(cTokenAddress);\n        address underlyingAddress = cToken.underlying();\n        IERC20(underlyingAddress).approve(cTokenAddress, underlyingAmount);\n        uint256 result = cToken.mint(underlyingAmount);\n        require(result == 0, \"cTokrn#mint Failed. see compound errorReported\");\n    }\n\n    function redeem(address cTokenAddress, uint256 cTokenAmount) external {\n        CTokenInterface cToken = CTokenInterface(cTokenAddress);\n        uint256 result = cToken.redeem(cTokenAmount);\n        require(\n            result == 0,\n            \"cTokrn#redeem() Failed. see compound errorReported\"\n        );\n    }\n\n    function enterMarket(address cTokenAddress) external {\n        address[] memory markets = new address[](1);\n        markets[0] = cTokenAddress;\n        uint256[] memory result = comptroller.etherMarkets(markets);\n        require(\n            result[0] == 0,\n            \"comptroller#etherMarkets() Failed. see compound errorReported\"\n        );\n    }\n\n    function borrow(address cTokenAddress, uint256 borrowAmount) external {\n        CTokenInterface cToken = CTokenInterface(cTokenAddress);\n        address underlyingAddress = cToken.underlying();\n        uint256 result = cToken.borrow(borrowAmount);\n        require(\n            result == 0,\n            \"cToken#borrow() Failed. see compound errorReported\"\n        );\n    }\n\n    function repayBorrow(address cTokenAddress, uint256 underlyingAmount)\n        external\n    {\n        CTokenInterface cToken = CTokenInterface(cTokenAddress);\n        address underlyingAddress = cToken.underlying();\n        IERC20(underlyingAddress).approve(cTokenAddress, underlyingAmount);\n        uint256 result = cToken.repayBorrow(underlyingAmount);\n        require(\n            result == 0,\n            \"cTokrn#repayBorrow() Failed. see compound errorReported\"\n        );\n    }\n\n    function getMaxBorrow(address cTokenAddress)\n        external\n        view\n        returns (uint256)\n    {\n        (uint256 result, uint256 liquidity, uint256 shortfall) = comptroller\n            .getAccountLiquidity(address(this));\n        require(\n            result == 0,\n            \"comptroller#getAccountLiquidity() Failed. see compound errorReported\"\n        );\n        require(shortfall == 0, \"Account underwater\");\n        require(liquidity > 0, \"Account does not have collateral\");\n        uint256 underlyingPrice = priceOracle.getUndelyingPrice(cTokenAddress);\n        return liquidity / underlyingPrice;\n    }\n}\n",
  "sourcePath": "/home/codecrunch/Music/eatTheBlocks-Solidity/DeFi-projects/compound/contracts/MydefiProject.sol",
  "compiler": {
    "name": "solc",
    "version": "0.8.11+commit.d7f03943.Emscripten.clang"
  },
  "schemaVersion": "3.4.4",
  "updatedAt": "2022-02-16T09:47:45.090Z",
  "devdoc": {
    "kind": "dev",
    "methods": {},
    "version": 1
  },
  "userdoc": {
    "kind": "user",
    "methods": {},
    "version": 1
  }
}