{
  "contractName": "FlashLoadUser",
  "abi": [
    {
      "inputs": [
        {
          "internalType": "address",
          "name": "flashLoan",
          "type": "address"
        },
        {
          "internalType": "uint256",
          "name": "amount",
          "type": "uint256"
        },
        {
          "internalType": "address",
          "name": "token",
          "type": "address"
        }
      ],
      "name": "startFlashLoan",
      "outputs": [],
      "stateMutability": "nonpayable",
      "type": "function"
    },
    {
      "inputs": [
        {
          "internalType": "uint256",
          "name": "amount",
          "type": "uint256"
        },
        {
          "internalType": "address",
          "name": "token",
          "type": "address"
        },
        {
          "internalType": "bytes",
          "name": "data",
          "type": "bytes"
        }
      ],
      "name": "flashLoanCallback",
      "outputs": [],
      "stateMutability": "nonpayable",
      "type": "function"
    }
  ],
  "bytecode": "0x608060405234801561001057600080fd5b506105e2806100206000396000f3fe608060405234801561001057600080fd5b50600436106100365760003560e01c8063158a578d1461003b578063960af7bf14610057575b600080fd5b61005560048036038101906100509190610224565b610073565b005b610071600480360381019061006c91906103bd565b6100f8565b005b8273ffffffffffffffffffffffffffffffffffffffff1663111f939e308484604051806020016040528060008152506040518563ffffffff1660e01b81526004016100c194939291906104d2565b600060405180830381600087803b1580156100db57600080fd5b505af11580156100ef573d6000803e3d6000fd5b50505050505050565b8173ffffffffffffffffffffffffffffffffffffffff1663a9059cbb33856040518363ffffffff1660e01b815260040161013392919061051e565b6020604051808303816000875af1158015610152573d6000803e3d6000fd5b505050506040513d601f19601f82011682018060405250810190610176919061057f565b50505050565b6000604051905090565b600080fd5b600080fd5b600073ffffffffffffffffffffffffffffffffffffffff82169050919050565b60006101bb82610190565b9050919050565b6101cb816101b0565b81146101d657600080fd5b50565b6000813590506101e8816101c2565b92915050565b6000819050919050565b610201816101ee565b811461020c57600080fd5b50565b60008135905061021e816101f8565b92915050565b60008060006060848603121561023d5761023c610186565b5b600061024b868287016101d9565b935050602061025c8682870161020f565b925050604061026d868287016101d9565b9150509250925092565b600080fd5b600080fd5b6000601f19601f8301169050919050565b7f4e487b7100000000000000000000000000000000000000000000000000000000600052604160045260246000fd5b6102ca82610281565b810181811067ffffffffffffffff821117156102e9576102e8610292565b5b80604052505050565b60006102fc61017c565b905061030882826102c1565b919050565b600067ffffffffffffffff82111561032857610327610292565b5b61033182610281565b9050602081019050919050565b82818337600083830152505050565b600061036061035b8461030d565b6102f2565b90508281526020810184848401111561037c5761037b61027c565b5b61038784828561033e565b509392505050565b600082601f8301126103a4576103a3610277565b5b81356103b484826020860161034d565b91505092915050565b6000806000606084860312156103d6576103d5610186565b5b60006103e48682870161020f565b93505060206103f5868287016101d9565b925050604084013567ffffffffffffffff8111156104165761041561018b565b5b6104228682870161038f565b9150509250925092565b610435816101b0565b82525050565b610444816101ee565b82525050565b600081519050919050565b600082825260208201905092915050565b60005b83811015610484578082015181840152602081019050610469565b83811115610493576000848401525b50505050565b60006104a48261044a565b6104ae8185610455565b93506104be818560208601610466565b6104c781610281565b840191505092915050565b60006080820190506104e7600083018761042c565b6104f4602083018661043b565b610501604083018561042c565b81810360608301526105138184610499565b905095945050505050565b6000604082019050610533600083018561042c565b610540602083018461043b565b9392505050565b60008115159050919050565b61055c81610547565b811461056757600080fd5b50565b60008151905061057981610553565b92915050565b60006020828403121561059557610594610186565b5b60006105a38482850161056a565b9150509291505056fea2646970667358221220172f3dc18fb690792ad44a1bf14ac6c11622cc4aa6b0eb9410c08c8f6cac34ba64736f6c634300080b0033",
  "immutableReferences": {},
  "source": "//SPDX-License-Identifier: UNLICENSED\npragma solidity ^0.8.0;\n\nimport '../node_modules/@openzeppelin/contracts/token/ERC20/IERC20.sol';\nimport './FlashLoanprovider.sol';\nimport './IFlashLoanUser.sol';\n\ncontract FlashLoadUser{\n    function startFlashLoan(\n        address flashLoan,\n        uint amount,\n        address token\n    ) external{\n        FlashLoanProvider(flashLoan).executeFlashLoan(address(this), amount, token, bytes(''));\n    }\n    function flashLoanCallback(\n        uint amount, address token, bytes memory data\n    )\n        external{\n        IERC20(token).transfer(msg.sender, amount);\n    }\n}\n\n",
  "sourcePath": "/home/codecrunch/Music/eatTheBlocks-Solidity/DeFi-projects/FlashLoan/contracts/FlashLoanUser.sol",
  "compiler": {
    "name": "solc",
    "version": "0.8.11+commit.d7f03943.Emscripten.clang"
  },
  "schemaVersion": "3.4.4",
  "updatedAt": "2022-02-14T10:26:32.241Z",
  "devdoc": {
    "kind": "dev",
    "methods": {},
    "version": 1
  },
  "userdoc": {
    "kind": "user",
    "methods": {},
    "version": 1
  }
}