{
  "contractName": "Compound",
  "abi": [
    {
      "inputs": [
        {
          "internalType": "address",
          "name": "_comptroller",
          "type": "address"
        },
        {
          "internalType": "address",
          "name": "_cEthAddress",
          "type": "address"
        }
      ],
      "stateMutability": "nonpayable",
      "type": "constructor"
    },
    {
      "inputs": [],
      "name": "cEth",
      "outputs": [
        {
          "internalType": "contract CEthInterface",
          "name": "",
          "type": "address"
        }
      ],
      "stateMutability": "view",
      "type": "function"
    },
    {
      "inputs": [],
      "name": "comptroller",
      "outputs": [
        {
          "internalType": "contract ComptrollerInterface",
          "name": "",
          "type": "address"
        }
      ],
      "stateMutability": "view",
      "type": "function"
    },
    {
      "inputs": [
        {
          "internalType": "address",
          "name": "cTokenAddress",
          "type": "address"
        }
      ],
      "name": "getcTokenBalance",
      "outputs": [
        {
          "internalType": "uint256",
          "name": "",
          "type": "uint256"
        }
      ],
      "stateMutability": "view",
      "type": "function"
    },
    {
      "inputs": [
        {
          "internalType": "address",
          "name": "cTokenAddress",
          "type": "address"
        }
      ],
      "name": "getUnderlyingBalance",
      "outputs": [
        {
          "internalType": "uint256",
          "name": "",
          "type": "uint256"
        }
      ],
      "stateMutability": "nonpayable",
      "type": "function"
    },
    {
      "inputs": [],
      "name": "getUnderlyingEthBalance",
      "outputs": [
        {
          "internalType": "uint256",
          "name": "",
          "type": "uint256"
        }
      ],
      "stateMutability": "nonpayable",
      "type": "function"
    }
  ],
  "bytecode": "0x608060405234801561001057600080fd5b506040516106ac3803806106ac8339818101604052810190610032919061011d565b816000806101000a81548173ffffffffffffffffffffffffffffffffffffffff021916908373ffffffffffffffffffffffffffffffffffffffff16021790555080600160006101000a81548173ffffffffffffffffffffffffffffffffffffffff021916908373ffffffffffffffffffffffffffffffffffffffff160217905550505061015d565b600080fd5b600073ffffffffffffffffffffffffffffffffffffffff82169050919050565b60006100ea826100bf565b9050919050565b6100fa816100df565b811461010557600080fd5b50565b600081519050610117816100f1565b92915050565b60008060408385031215610134576101336100ba565b5b600061014285828601610108565b925050602061015385828601610108565b9150509250929050565b6105408061016c6000396000f3fe608060405234801561001057600080fd5b50600436106100575760003560e01c80631031cb5f1461005c5780635fe3b5671461008c578063703d795c146100aa578063a44026a3146100c8578063f0d23e8f146100e6575b600080fd5b61007660048036038101906100719190610370565b610116565b60405161008391906103b6565b60405180910390f35b610094610199565b6040516100a19190610430565b60405180910390f35b6100b26101bd565b6040516100bf91906103b6565b60405180910390f35b6100d0610262565b6040516100dd919061046c565b60405180910390f35b61010060048036038101906100fb9190610370565b610288565b60405161010d91906103b6565b60405180910390f35b60008173ffffffffffffffffffffffffffffffffffffffff166370a08231306040518263ffffffff1660e01b81526004016101519190610496565b602060405180830381865afa15801561016e573d6000803e3d6000fd5b505050506040513d601f19601f8201168201806040525081019061019291906104dd565b9050919050565b60008054906101000a900473ffffffffffffffffffffffffffffffffffffffff1681565b6000600160009054906101000a900473ffffffffffffffffffffffffffffffffffffffff1673ffffffffffffffffffffffffffffffffffffffff16633af9e669306040518263ffffffff1660e01b815260040161021a9190610496565b6020604051808303816000875af1158015610239573d6000803e3d6000fd5b505050506040513d601f19601f8201168201806040525081019061025d91906104dd565b905090565b600160009054906101000a900473ffffffffffffffffffffffffffffffffffffffff1681565b60008173ffffffffffffffffffffffffffffffffffffffff16633af9e669306040518263ffffffff1660e01b81526004016102c39190610496565b6020604051808303816000875af11580156102e2573d6000803e3d6000fd5b505050506040513d601f19601f8201168201806040525081019061030691906104dd565b9050919050565b600080fd5b600073ffffffffffffffffffffffffffffffffffffffff82169050919050565b600061033d82610312565b9050919050565b61034d81610332565b811461035857600080fd5b50565b60008135905061036a81610344565b92915050565b6000602082840312156103865761038561030d565b5b60006103948482850161035b565b91505092915050565b6000819050919050565b6103b08161039d565b82525050565b60006020820190506103cb60008301846103a7565b92915050565b6000819050919050565b60006103f66103f16103ec84610312565b6103d1565b610312565b9050919050565b6000610408826103db565b9050919050565b600061041a826103fd565b9050919050565b61042a8161040f565b82525050565b60006020820190506104456000830184610421565b92915050565b6000610456826103fd565b9050919050565b6104668161044b565b82525050565b6000602082019050610481600083018461045d565b92915050565b61049081610332565b82525050565b60006020820190506104ab6000830184610487565b92915050565b6104ba8161039d565b81146104c557600080fd5b50565b6000815190506104d7816104b1565b92915050565b6000602082840312156104f3576104f261030d565b5b6000610501848285016104c8565b9150509291505056fea2646970667358221220de632719d010fa9c09ab03b49d9851dcc4654ebf1aec2aeb1a2abbb14f7309fe64736f6c634300080b0033",
  "immutableReferences": {},
  "source": "//SPDX-License-Identifier: UNLICENSED\npragma solidity ^0.8.0;\n\nimport '../node_modules/@openzeppelin/contracts/token/ERC20/IERC20.sol';\nimport './CTokenInterface.sol';\nimport './CEthInterface.sol';\nimport './ComptrollerInterface.sol';\n\ncontract Compound {\n  ComptrollerInterface public comptroller;\n  CEthInterface public cEth;\n\n  constructor(\n    address _comptroller,\n    address _cEthAddress\n  ) {\n    comptroller = ComptrollerInterface(_comptroller);\n    cEth = CEthInterface(_cEthAddress);\n  }\n\n  function supply(address cTokenAddress, uint underlyingAmount) internal {\n    CTokenInterface cToken = CTokenInterface(cTokenAddress);\n    address underlyingAddress = cToken.underlying(); \n    IERC20(underlyingAddress).approve(cTokenAddress, underlyingAmount);\n    uint result = cToken.mint(underlyingAmount);\n    require(\n      result == 0, \n      'cToken#mint() failed. see Compound ErrorReporter.sol for details'\n    );\n  }\n\n  function supplyEth(uint underlyingAmount) internal {\n    cEth.mint{value: underlyingAmount}();\n  }\n\n  function redeem(address cTokenAddress, uint underlyingAmount) internal {\n    CTokenInterface cToken = CTokenInterface(cTokenAddress);\n    uint result = cToken.redeemUnderlying(underlyingAmount);\n    require(\n      result == 0,\n      'cToken#redeemUnderlying() failed. see Compound ErrorReporter.sol for more details'\n    );\n  }\n\n  function redeemEth(uint underlyingAmount) internal {\n    uint result = cEth.redeemUnderlying(underlyingAmount);\n    require(\n      result == 0,\n      'cEth#redeemUnderlying() failed. see Compound ErrorReporter.sol for more details'\n    );\n  }\n\n  function claimComp() internal {\n    comptroller.claimComp(address(this));\n  }\n\n  function getCompAddress() internal view returns(address) {\n    return comptroller.getCompAddress();\n  }\n\n  function getUnderlyingAddress(\n    address cTokenAddress\n  ) \n    internal \n    view \n    returns(address) \n  {\n    return CTokenInterface(cTokenAddress).underlying();\n  }\n\n  function getcTokenBalance(address cTokenAddress) public view returns(uint){\n    return CTokenInterface(cTokenAddress).balanceOf(address(this));\n  }\n\n  function getUnderlyingBalance(address cTokenAddress) public returns(uint){\n    return CTokenInterface(cTokenAddress).balanceOfUnderlying(address(this));\n  }\n\n  function getUnderlyingEthBalance() public returns(uint){\n    return cEth.balanceOfUnderlying(address(this));\n  }\n}",
  "sourcePath": "/home/codecrunch/Music/eatTheBlocks-Solidity/DeFi-projects/DeFiWallet/contracts/Compound.sol",
  "compiler": {
    "name": "solc",
    "version": "0.8.11+commit.d7f03943.Emscripten.clang"
  },
  "schemaVersion": "3.4.4",
  "updatedAt": "2022-02-17T05:47:26.887Z",
  "devdoc": {
    "kind": "dev",
    "methods": {},
    "version": 1
  },
  "userdoc": {
    "kind": "user",
    "methods": {},
    "version": 1
  }
}