{
  "contractName": "Wallet",
  "abi": [
    {
      "inputs": [
        {
          "internalType": "address",
          "name": "_comptroller",
          "type": "address"
        },
        {
          "internalType": "address",
          "name": "_cEthAddress",
          "type": "address"
        }
      ],
      "stateMutability": "nonpayable",
      "type": "constructor"
    },
    {
      "inputs": [],
      "name": "admin",
      "outputs": [
        {
          "internalType": "address",
          "name": "",
          "type": "address"
        }
      ],
      "stateMutability": "view",
      "type": "function",
      "constant": true
    },
    {
      "inputs": [],
      "name": "cEth",
      "outputs": [
        {
          "internalType": "contract CEthInterface",
          "name": "",
          "type": "address"
        }
      ],
      "stateMutability": "view",
      "type": "function",
      "constant": true
    },
    {
      "inputs": [],
      "name": "comptroller",
      "outputs": [
        {
          "internalType": "contract ComptrollerInterface",
          "name": "",
          "type": "address"
        }
      ],
      "stateMutability": "view",
      "type": "function",
      "constant": true
    },
    {
      "inputs": [
        {
          "internalType": "address",
          "name": "cTokenAddress",
          "type": "address"
        }
      ],
      "name": "getUnderlyingBalance",
      "outputs": [
        {
          "internalType": "uint256",
          "name": "",
          "type": "uint256"
        }
      ],
      "stateMutability": "nonpayable",
      "type": "function"
    },
    {
      "inputs": [],
      "name": "getUnderlyingEthBalance",
      "outputs": [
        {
          "internalType": "uint256",
          "name": "",
          "type": "uint256"
        }
      ],
      "stateMutability": "nonpayable",
      "type": "function"
    },
    {
      "inputs": [
        {
          "internalType": "address",
          "name": "cTokenAddress",
          "type": "address"
        }
      ],
      "name": "getcTokenBalance",
      "outputs": [
        {
          "internalType": "uint256",
          "name": "",
          "type": "uint256"
        }
      ],
      "stateMutability": "view",
      "type": "function",
      "constant": true
    },
    {
      "stateMutability": "payable",
      "type": "receive",
      "payable": true
    },
    {
      "inputs": [
        {
          "internalType": "address",
          "name": "cTokenAddress",
          "type": "address"
        },
        {
          "internalType": "uint256",
          "name": "underlyingAmount",
          "type": "uint256"
        }
      ],
      "name": "depost",
      "outputs": [],
      "stateMutability": "nonpayable",
      "type": "function"
    },
    {
      "inputs": [
        {
          "internalType": "address",
          "name": "cTokenAddress",
          "type": "address"
        },
        {
          "internalType": "uint256",
          "name": "underlyingAmount",
          "type": "uint256"
        },
        {
          "internalType": "address",
          "name": "recipient",
          "type": "address"
        }
      ],
      "name": "withdraw",
      "outputs": [],
      "stateMutability": "nonpayable",
      "type": "function"
    },
    {
      "inputs": [
        {
          "internalType": "uint256",
          "name": "underlyingAmount",
          "type": "uint256"
        },
        {
          "internalType": "address payable",
          "name": "recipient",
          "type": "address"
        }
      ],
      "name": "withdrawEth",
      "outputs": [],
      "stateMutability": "nonpayable",
      "type": "function"
    }
  ],
  "bytecode": "0x60806040523480156200001157600080fd5b50604051620018c4380380620018c483398181016040528101906200003791906200016f565b8181816000806101000a81548173ffffffffffffffffffffffffffffffffffffffff021916908373ffffffffffffffffffffffffffffffffffffffff16021790555080600160006101000a81548173ffffffffffffffffffffffffffffffffffffffff021916908373ffffffffffffffffffffffffffffffffffffffff160217905550505033600260006101000a81548173ffffffffffffffffffffffffffffffffffffffff021916908373ffffffffffffffffffffffffffffffffffffffff1602179055505050620001b6565b600080fd5b600073ffffffffffffffffffffffffffffffffffffffff82169050919050565b600062000137826200010a565b9050919050565b62000149816200012a565b81146200015557600080fd5b50565b60008151905062000169816200013e565b92915050565b6000806040838503121562000189576200018862000105565b5b6000620001998582860162000158565b9250506020620001ac8582860162000158565b9150509250929050565b6116fe80620001c66000396000f3fe60806040526004361061008a5760003560e01c8063703d795c11610059578063703d795c14610159578063a158657c14610184578063a44026a3146101ad578063f0d23e8f146101d8578063f851a440146102155761009a565b80631031cb5f1461009f5780631a60801a146100dc5780635fe3b5671461010557806369328dec146101305761009a565b3661009a5761009834610240565b005b600080fd5b3480156100ab57600080fd5b506100c660048036038101906100c19190610fcc565b6102c6565b6040516100d39190611012565b60405180910390f35b3480156100e857600080fd5b5061010360048036038101906100fe9190611059565b610349565b005b34801561011157600080fd5b5061011a6103e6565b60405161012791906110f8565b60405180910390f35b34801561013c57600080fd5b5061015760048036038101906101529190611113565b61040a565b005b34801561016557600080fd5b5061016e61069a565b60405161017b9190611012565b60405180910390f35b34801561019057600080fd5b506101ab60048036038101906101a691906111a4565b61073f565b005b3480156101b957600080fd5b506101c2610986565b6040516101cf9190611205565b60405180910390f35b3480156101e457600080fd5b506101ff60048036038101906101fa9190610fcc565b6109ac565b60405161020c9190611012565b60405180910390f35b34801561022157600080fd5b5061022a610a31565b604051610237919061122f565b60405180910390f35b600160009054906101000a900473ffffffffffffffffffffffffffffffffffffffff1673ffffffffffffffffffffffffffffffffffffffff16631249c58b826040518263ffffffff1660e01b81526004016000604051808303818588803b1580156102aa57600080fd5b505af11580156102be573d6000803e3d6000fd5b505050505050565b60008173ffffffffffffffffffffffffffffffffffffffff166370a08231306040518263ffffffff1660e01b8152600401610301919061122f565b602060405180830381865afa15801561031e573d6000803e3d6000fd5b505050506040513d601f19601f82011682018060405250810190610342919061125f565b9050919050565b600061035483610a57565b90508073ffffffffffffffffffffffffffffffffffffffff166323b872dd3330856040518463ffffffff1660e01b81526004016103939392919061128c565b6020604051808303816000875af11580156103b2573d6000803e3d6000fd5b505050506040513d601f19601f820116820180604052508101906103d691906112fb565b506103e18383610acf565b505050565b60008054906101000a900473ffffffffffffffffffffffffffffffffffffffff1681565b600260009054906101000a900473ffffffffffffffffffffffffffffffffffffffff1673ffffffffffffffffffffffffffffffffffffffff163373ffffffffffffffffffffffffffffffffffffffff161461049a576040517f08c379a000000000000000000000000000000000000000000000000000000000815260040161049190611385565b60405180910390fd5b816104a4846109ac565b10156104e5576040517f08c379a00000000000000000000000000000000000000000000000000000000081526004016104dc906113f1565b60405180910390fd5b6104ed610c90565b6104f78383610d1d565b600061050284610a57565b90508073ffffffffffffffffffffffffffffffffffffffff1663a9059cbb83856040518363ffffffff1660e01b815260040161053f929190611411565b6020604051808303816000875af115801561055e573d6000803e3d6000fd5b505050506040513d601f19601f8201168201806040525081019061058291906112fb565b50600061058d610deb565b9050600081905060008173ffffffffffffffffffffffffffffffffffffffff166370a08231306040518263ffffffff1660e01b81526004016105cf919061122f565b602060405180830381865afa1580156105ec573d6000803e3d6000fd5b505050506040513d601f19601f82011682018060405250810190610610919061125f565b90508173ffffffffffffffffffffffffffffffffffffffff1663a9059cbb86836040518363ffffffff1660e01b815260040161064d929190611411565b6020604051808303816000875af115801561066c573d6000803e3d6000fd5b505050506040513d601f19601f8201168201806040525081019061069091906112fb565b5050505050505050565b6000600160009054906101000a900473ffffffffffffffffffffffffffffffffffffffff1673ffffffffffffffffffffffffffffffffffffffff16633af9e669306040518263ffffffff1660e01b81526004016106f7919061122f565b6020604051808303816000875af1158015610716573d6000803e3d6000fd5b505050506040513d601f19601f8201168201806040525081019061073a919061125f565b905090565b600260009054906101000a900473ffffffffffffffffffffffffffffffffffffffff1673ffffffffffffffffffffffffffffffffffffffff163373ffffffffffffffffffffffffffffffffffffffff16146107cf576040517f08c379a00000000000000000000000000000000000000000000000000000000081526004016107c690611385565b60405180910390fd5b816107d861069a565b1015610819576040517f08c379a0000000000000000000000000000000000000000000000000000000008152600401610810906113f1565b60405180910390fd5b610821610c90565b61082a82610e82565b8073ffffffffffffffffffffffffffffffffffffffff166108fc839081150290604051600060405180830381858888f19350505050158015610870573d6000803e3d6000fd5b50600061087b610deb565b9050600081905060008173ffffffffffffffffffffffffffffffffffffffff166370a08231306040518263ffffffff1660e01b81526004016108bd919061122f565b602060405180830381865afa1580156108da573d6000803e3d6000fd5b505050506040513d601f19601f820116820180604052508101906108fe919061125f565b90508173ffffffffffffffffffffffffffffffffffffffff1663a9059cbb85836040518363ffffffff1660e01b815260040161093b92919061145b565b6020604051808303816000875af115801561095a573d6000803e3d6000fd5b505050506040513d601f19601f8201168201806040525081019061097e91906112fb565b505050505050565b600160009054906101000a900473ffffffffffffffffffffffffffffffffffffffff1681565b60008173ffffffffffffffffffffffffffffffffffffffff16633af9e669306040518263ffffffff1660e01b81526004016109e7919061122f565b6020604051808303816000875af1158015610a06573d6000803e3d6000fd5b505050506040513d601f19601f82011682018060405250810190610a2a919061125f565b9050919050565b600260009054906101000a900473ffffffffffffffffffffffffffffffffffffffff1681565b60008173ffffffffffffffffffffffffffffffffffffffff16636f307dc36040518163ffffffff1660e01b8152600401602060405180830381865afa158015610aa4573d6000803e3d6000fd5b505050506040513d601f19601f82011682018060405250810190610ac89190611499565b9050919050565b600082905060008173ffffffffffffffffffffffffffffffffffffffff16636f307dc36040518163ffffffff1660e01b8152600401602060405180830381865afa158015610b21573d6000803e3d6000fd5b505050506040513d601f19601f82011682018060405250810190610b459190611499565b90508073ffffffffffffffffffffffffffffffffffffffff1663095ea7b385856040518363ffffffff1660e01b8152600401610b82929190611411565b6020604051808303816000875af1158015610ba1573d6000803e3d6000fd5b505050506040513d601f19601f82011682018060405250810190610bc591906112fb565b5060008273ffffffffffffffffffffffffffffffffffffffff1663a0712d68856040518263ffffffff1660e01b8152600401610c019190611012565b6020604051808303816000875af1158015610c20573d6000803e3d6000fd5b505050506040513d601f19601f82011682018060405250810190610c44919061125f565b905060008114610c89576040517f08c379a0000000000000000000000000000000000000000000000000000000008152600401610c8090611538565b60405180910390fd5b5050505050565b60008054906101000a900473ffffffffffffffffffffffffffffffffffffffff1673ffffffffffffffffffffffffffffffffffffffff1663e9af0292306040518263ffffffff1660e01b8152600401610ce9919061122f565b600060405180830381600087803b158015610d0357600080fd5b505af1158015610d17573d6000803e3d6000fd5b50505050565b600082905060008173ffffffffffffffffffffffffffffffffffffffff1663852a12e3846040518263ffffffff1660e01b8152600401610d5d9190611012565b6020604051808303816000875af1158015610d7c573d6000803e3d6000fd5b505050506040513d601f19601f82011682018060405250810190610da0919061125f565b905060008114610de5576040517f08c379a0000000000000000000000000000000000000000000000000000000008152600401610ddc906115f0565b60405180910390fd5b50505050565b60008060009054906101000a900473ffffffffffffffffffffffffffffffffffffffff1673ffffffffffffffffffffffffffffffffffffffff16639d1b5a0a6040518163ffffffff1660e01b8152600401602060405180830381865afa158015610e59573d6000803e3d6000fd5b505050506040513d601f19601f82011682018060405250810190610e7d9190611499565b905090565b6000600160009054906101000a900473ffffffffffffffffffffffffffffffffffffffff1673ffffffffffffffffffffffffffffffffffffffff1663852a12e3836040518263ffffffff1660e01b8152600401610edf9190611012565b602060405180830381865afa158015610efc573d6000803e3d6000fd5b505050506040513d601f19601f82011682018060405250810190610f20919061125f565b905060008114610f65576040517f08c379a0000000000000000000000000000000000000000000000000000000008152600401610f5c906116a8565b60405180910390fd5b5050565b600080fd5b600073ffffffffffffffffffffffffffffffffffffffff82169050919050565b6000610f9982610f6e565b9050919050565b610fa981610f8e565b8114610fb457600080fd5b50565b600081359050610fc681610fa0565b92915050565b600060208284031215610fe257610fe1610f69565b5b6000610ff084828501610fb7565b91505092915050565b6000819050919050565b61100c81610ff9565b82525050565b60006020820190506110276000830184611003565b92915050565b61103681610ff9565b811461104157600080fd5b50565b6000813590506110538161102d565b92915050565b600080604083850312156110705761106f610f69565b5b600061107e85828601610fb7565b925050602061108f85828601611044565b9150509250929050565b6000819050919050565b60006110be6110b96110b484610f6e565b611099565b610f6e565b9050919050565b60006110d0826110a3565b9050919050565b60006110e2826110c5565b9050919050565b6110f2816110d7565b82525050565b600060208201905061110d60008301846110e9565b92915050565b60008060006060848603121561112c5761112b610f69565b5b600061113a86828701610fb7565b935050602061114b86828701611044565b925050604061115c86828701610fb7565b9150509250925092565b600061117182610f6e565b9050919050565b61118181611166565b811461118c57600080fd5b50565b60008135905061119e81611178565b92915050565b600080604083850312156111bb576111ba610f69565b5b60006111c985828601611044565b92505060206111da8582860161118f565b9150509250929050565b60006111ef826110c5565b9050919050565b6111ff816111e4565b82525050565b600060208201905061121a60008301846111f6565b92915050565b61122981610f8e565b82525050565b60006020820190506112446000830184611220565b92915050565b6000815190506112598161102d565b92915050565b60006020828403121561127557611274610f69565b5b60006112838482850161124a565b91505092915050565b60006060820190506112a16000830186611220565b6112ae6020830185611220565b6112bb6040830184611003565b949350505050565b60008115159050919050565b6112d8816112c3565b81146112e357600080fd5b50565b6000815190506112f5816112cf565b92915050565b60006020828403121561131157611310610f69565b5b600061131f848285016112e6565b91505092915050565b600082825260208201905092915050565b7f4f6e6c792061646d696e00000000000000000000000000000000000000000000600082015250565b600061136f600a83611328565b915061137a82611339565b602082019050919050565b6000602082019050818103600083015261139e81611362565b9050919050565b7f42616c616e636520697320746f6f206c6f770000000000000000000000000000600082015250565b60006113db601283611328565b91506113e6826113a5565b602082019050919050565b6000602082019050818103600083015261140a816113ce565b9050919050565b60006040820190506114266000830185611220565b6114336020830184611003565b9392505050565b6000611445826110c5565b9050919050565b6114558161143a565b82525050565b6000604082019050611470600083018561144c565b61147d6020830184611003565b9392505050565b60008151905061149381610fa0565b92915050565b6000602082840312156114af576114ae610f69565b5b60006114bd84828501611484565b91505092915050565b7f63546f6b656e236d696e742829206661696c65642e2073656520436f6d706f7560008201527f6e64204572726f725265706f727465722e736f6c20666f722064657461696c73602082015250565b6000611522604083611328565b915061152d826114c6565b604082019050919050565b6000602082019050818103600083015261155181611515565b9050919050565b7f63546f6b656e2372656465656d556e6465726c79696e672829206661696c656460008201527f2e2073656520436f6d706f756e64204572726f725265706f727465722e736f6c60208201527f20666f72206d6f72652064657461696c73000000000000000000000000000000604082015250565b60006115da605183611328565b91506115e582611558565b606082019050919050565b60006020820190508181036000830152611609816115cd565b9050919050565b7f634574682372656465656d556e6465726c79696e672829206661696c65642e2060008201527f73656520436f6d706f756e64204572726f725265706f727465722e736f6c206660208201527f6f72206d6f72652064657461696c730000000000000000000000000000000000604082015250565b6000611692604f83611328565b915061169d82611610565b606082019050919050565b600060208201905081810360008301526116c181611685565b905091905056fea2646970667358221220daa6802d90f0c98d0aa0db520bc7025ce66d84b56abde14aae073c0da5869add64736f6c634300080b0033",
  "immutableReferences": {},
  "source": "//SPDX-License-Identifier: UNLICENSED\npragma solidity ^0.8.0;\n\nimport \"../node_modules/@openzeppelin/contracts/token/ERC20/IERC20.sol\";\nimport \"./Compound.sol\";\n\ncontract Wallet is Compound {\n    address public admin;\n\n    constructor(address _comptroller, address _cEthAddress)\n        Compound(_comptroller, _cEthAddress)\n    {\n        admin = msg.sender;\n    }\n\n    function depost(address cTokenAddress, uint256 underlyingAmount) external {\n        address undelyingAddress = getUnderlyingAddress(cTokenAddress);\n        IERC20(undelyingAddress).transferFrom(\n            msg.sender,\n            address(this),\n            underlyingAmount\n        );\n        supply(cTokenAddress, underlyingAmount);\n    }\n\n    receive() external payable {\n        supplyEth(msg.value);\n    }\n\n    modifier onlyAdmin() {\n        require(msg.sender == admin, \"Only admin\");\n        _;\n    }\n\n    function withdraw(\n        address cTokenAddress,\n        uint256 underlyingAmount,\n        address recipient\n    ) external onlyAdmin {\n        require(\n            getUnderlyingBalance(cTokenAddress) >= underlyingAmount,\n            \"Balance is too low\"\n        );\n        claimComp();\n        redeem(cTokenAddress, underlyingAmount);\n\n        address underlyingAddress = getUnderlyingAddress(cTokenAddress); \n        IERC20(underlyingAddress).transfer(recipient, underlyingAmount);\n\n        address compAddress = getCompAddress();\n        IERC20 compToken = IERC20(compAddress);\n        uint256 compAmount = compToken.balanceOf(address(this));\n        compToken.transfer(recipient, compAmount);\n    }\n\n    function withdrawEth(\n       uint underlyingAmount,\n       address payable recipient \n    )onlyAdmin() external{\n        require(\n            getUnderlyingEthBalance() >= underlyingAmount,\n            \"Balance is too low\"\n        );\n        claimComp();\n        redeemEth(underlyingAmount);\n        recipient.transfer(underlyingAmount);\n\n        address compAddress = getCompAddress();\n        IERC20 compToken = IERC20(compAddress);\n        uint256 compAmount = compToken.balanceOf(address(this));\n        compToken.transfer(recipient, compAmount);\n\n    }\n}\n",
  "sourcePath": "/home/codecrunch/Music/eatTheBlocks-Solidity/DeFi-projects/DeFiWallet/contracts/Wallet.sol",
  "compiler": {
    "name": "solc",
    "version": "0.8.11+commit.d7f03943.Emscripten.clang"
  },
  "schemaVersion": "3.4.4",
  "updatedAt": "2022-02-17T05:47:37.322Z",
  "networkType": "ethereum",
  "devdoc": {
    "kind": "dev",
    "methods": {},
    "version": 1
  },
  "userdoc": {
    "kind": "user",
    "methods": {},
    "version": 1
  }
}